:020000040800F2
:1000000000000220291E0008890900088B09000849
:100010008D0900088F090008910900080000000000
:10002000000000000000000000000000930900082C
:1000300095090008000000009709000899090008C8
:10004000791E0008791E0008791E0008791E000834
:10005000791E0008791E0008791E0008791E000824
:10006000791E0008791E0008791E0008791E000814
:10007000791E0008791E0008791E0008791E000804
:10008000791E0008791E0008791E0008791E0008F4
:10009000791E0008791E0008791E0008791E0008E4
:1000A000791E0008791E0008791E0008791E0008D4
:1000B000791E0008791E0008791E0008791E0008C4
:1000C000791E0008791E0008791E0008791E0008B4
:1000D000791E0008A1090008791E0008791E000891
:1000E000791E0008791E0008791E0008791E000894
:1000F000791E0008791E0008791E0008791E000884
:10010000791E0008791E0008791E0008791E000873
:10011000791E0008791E0008791E0008791E000863
:10012000791E0008791E0008791E0008791E000853
:10013000791E00080000000000000000791E000881
:10014000791E0008791E0008791E0008791E000833
:10015000791E0008791E0008791E0008791E000823
:10016000791E0008791E0008791E0008791E000813
:10017000791E0008791E0008791E000800000000A2
:1001800000000000791E00080000000000000000D0
:10019000791E00080000000000000000791E000821
:1001A000000000000000000000000000791E0008B0
:1001B000791E0008791E0008791E0008791E0008C3
:0401C000791E00089C
:1001D00010B5054C237833B9044B13B10448AFF381
:1001E00000800123237010BD5C000020000000008F
:1001F0004028000808B5034B1BB103490348AFF37F
:10020000008008BD000000006000002040280008B9
:1002100010F8012B11F8013B012A28BF9A42F7D0B0
:10022000D01A7047034613F8012B002AFBD1181A85
:1002300001387047000000000000000000000000CE
:1002400001F0FF01102A2BDB10F0070F08D010F887
:10025000013B013A8B422DD010F0070F42B3F6D18B
:10026000F0B441EA012141EA014122F007047FF0A4
:1002700000070023F0E80256083C85EA010586EAFB
:10028000010685FA47F5A3FA87F586FA47F6A5FA37
:1002900087F68EB9EED1F0BC01F0FF0102F0070243
:1002A00032B110F8013B013A83EA010313B1F8D1EE
:1002B0000020704701387047002D06BF35460338CF
:1002C000073815F0010F07D1013015F4807F02BF08
:1002D000013015F4C03F0130F0BC0138704700BF59
:1002E00053B94AB9002908BF00281CBF4FF0FF319D
:1002F0004FF0FF3000F088B9ADF1080C6DE904CE85
:1003000000F006F8DDF804E0DDE9022304B07047F0
:100310002DE9F047089D8E4604468846002B4AD1B9
:100320008A42174662D9B2FA82F64EB1C6F120036C
:1003300001FA06F820FA03F3B74043EA0808B4408C
:100340004FEA174E1FFA87FCB8FBFEF1230C0EFB99
:10035000118843EA084301FB0CF29A4209D9FB18C1
:1003600001F1FF3080F0EA809A4240F2E7800239E2
:100370003B449A1AA3B2B2FBFEF00EFB102243EAF2
:10038000024300FB0CFC9C4509D9FB1800F1FF322D
:1003900080F0D6809C4540F2D3803B44023840EA4E
:1003A0000140A3EB0C0300211DB1F3400022C5E97D
:1003B0000032BDE8F0878B4205D90DB1C5E90001D7
:1003C00000210846F5E7B3FA83F1002946D17345C9
:1003D00002D3824200F20581841A6EEB03020120EF
:1003E0009046002DE5D0C5E90048E2E7002A00F07C
:1003F0009080B2FA82F6002E40F0A4808A1A030C94
:100400004FEA174E80B2BCB20121B2FBFEFC0EFBDC
:100410001C2243EA024304FB0CF29A4207D9FB1860
:100420000CF1FF3802D29A4200F2E080C4469B1AD7
:10043000B3FBFEF20EFB123340EA034302FB04F46B
:100440009C4207D9FB1802F1FF3002D29C4200F215
:10045000CA8002461B1B42EA0C40A5E7C1F12006F8
:100460008B4022FA06F71F430EFA01F420FA06F336
:100470002EFA06FE4FEA1749234300FA01F81FFA45
:1004800087FCBEFBF9F01C0C09FB10EE44EA0E449D
:1004900000FB0CFEA64502FA01F209D93C1900F155
:1004A000FF3A80F09C80A64540F2998002383C4497
:1004B000A4EB0E041FFA83FEB4FBF9F309FB13440B
:1004C0004EEA044403FB0CFCA44508D93C1903F193
:1004D000FF3E80F08280A4457FD9023B3C4443EA42
:1004E0000040A4EB0C04A0FB02EC64457346E1461B
:1004F00062D35FD05DB1B8EB030264EB090404FA88
:1005000006F622FA01F31E43CC40C5E9006400213F
:100510004FE7B1FBF2FC010C41EA0E4180B240EA28
:1005200001423B4638463C46B846BE462026B1FB13
:10053000F7F1A2EB080241EA0C4166E7014618E731
:1005400010462CE7C6F120022EFA02F3B740B14064
:1005500020FA02F24FEA174E0A43B3FBFEF8BCB290
:100560000EFB1833110C41EA034108FB04F9B040BB
:1005700089454FEA104380B23ED9791808F1FF3C13
:1005800001D289451FD8A1EB0901B1FBFEF909FB96
:1005900004F80EFB191192B242EA0142424529D2F7
:1005A000BA1809F1FF31C4D24245C2D2A9F1020101
:1005B0003A44BEE7F0459DD2BEEB02036CEB070C5C
:1005C0000138E14696E7A7EB09094944A8F1020C76
:1005D000B1FBFEF909FB04F8DBE773467FE7504601
:1005E00066E70846FDE63B44023A33E7ACF1020C0D
:1005F0003B441CE749469CE7A1EB0901C446B1FB1B
:10060000FEF909FB04F8C4E7704700BF30B589B0B4
:100610000024039404940594069407940194134BC6
:100620001A6B42F002021A631A6B02F00202019284
:10063000019A02941A6B42F001021A631B6B03F0D9
:1006400001030293029B0A4D2246FF21284601F036
:100650008BFAFF230393012304930594069403A9C3
:10066000284601F091F909B030BD00BF00380240C2
:100670000004024072B6FEE710B588B00024019471
:100680001C4B5A6C42F010025A645A6C02F0100271
:100690000192019A02941A6B42F001021A631B6BD9
:1006A00003F001030293029B0394049405940694BF
:1006B00007944FF4C0630393022304930323069328
:1006C0000723079303A90C4801F05EF90B480C4B74
:1006D00003604FF4E13343608460C46004610C2321
:1006E00043618461C46100F0E8FA08B908B010BD44
:1006F000FFF7C0FF003802400000024078000020F1
:100700000010014000B595B03422002107A801F087
:10071000EBFB00230293039304930593069300934A
:100720001F4A116C41F080511164126C02F080522A
:100730000092009A01931B490A6822F4404242F455
:1007400080420A600A6802F440420192019A022142
:10075000079101220A9210220B920D910E930F9293
:100760004FF4A8731093042311930723129307A83F
:1007700000F0E8FE80B90F230293022303930021C7
:1007800004914FF480530593069102A800F070FD88
:1007900020B915B05DF804FBFFF76CFFFFF76AFFA7
:1007A000003802400070004030B5ADF50F7D01F01B
:1007B000E1FAFFF7A7FFFFF729FFFFF75DFF40F220
:1007C0002F12002142A801F08FFB002500244FF0DA
:1007D000FF3301220DF10701614800F004FB60B90D
:1007E0009DF807300D2BF2D00A2B0BD07E2C06D8AB
:1007F000621C22A90B5594B2E9E7FFF73BFF22AB3D
:1008000000221A5522A8002303555649FFF700FD80
:10081000002833D0002D3AD0534922A8FFF7F8FC26
:1008200000283CD00922514922A801F065FB00288C
:100830004ED19DF89120A2F13103DBB2022B3FD8BB
:100840009DF89230002B3BD1313A652302FB03F334
:1008500042A9CB5C63B3652303FB0213444A8021A6
:1008600002A801F00BFB02A8FFF7DCFC4FF0FF33FE
:1008700082B202A93A4800F050FAA7E74FF0FF33DE
:1008800003223C49364800F048FA01259EE74FF024
:10089000FF3306223849324800F03FFA96E74FF01E
:1008A000FF33032233492E4800F037FA00258DE745
:1008B0004FF0FF330A223149294800F02EFA85E72C
:1008C0004FF0FF3306222C49254800F026FA7DE739
:1008D00009222B4922A801F00FFBC0BB9DF89120F3
:1008E000A2F13103DBB2022B03D89DF892303A2BF0
:1008F00007D04FF0FF3306221F49194800F00DFAC8
:1009000064E7A2F131040DF19300FFF78BFC64283A
:100910000FD80DF19301652042AB00FB043001F0CC
:100920003DFB4FF0FF33062216490D4800F0F5F964
:100930004CE7652342AA03FB042464220DF19301D2
:10094000204601F0EBFA002384F86430E9E74FF029
:10095000FF3306220849024800F0DFF936E700BFFE
:1009600078000020582800086C2800087828000823
:1009700084280008602800086428000890280008DF
:100980009C280008A8280008FEE7FEE7FEE7FEE72F
:10099000FEE770477047704708B501F005FA08BDDB
:1009A00008B5024800F014FB08BD00BF7800002025
:1009B00082B0002100910B4B5A6C42F480425A6481
:1009C0005A6C02F480420092009A01911A6C42F033
:1009D00080521A641B6C03F080530193019B02B098
:1009E000704700BF0038024010B588B00023039361
:1009F0000493059306930793026803F1804303F57C
:100A000088339A4201D008B010BD0024019403F548
:100A100094335A6C42F010025A645A6C02F010027D
:100A20000192019A02941A6B42F001021A631B6B45
:100A300003F001030293029B4FF4C063039302236C
:100A40000493032306930723079303A9054800F0A3
:100A50009BFF22462146252001F03EF9252001F08A
:100A60004BF9D0E700000240026802F10C0353E8A2
:100A7000003F23F490730C3242E800310029F3D197
:100A8000026802F1140353E8003F23F0010314321B
:100A900042E800310029F3D1036B012B05D020235C
:100AA00080F84230002303637047026802F10C03B0
:100AB00053E8003F23F010030C3242E800310029D4
:100AC000F3D1ECE790F84130DBB2212B01D00220CA
:100AD00070478368B3F5805F17D0036A5A1C0262BF
:100AE0001A7803685A60C38C9BB2013B9BB2C384E3
:100AF0004BB90268D36823F08003D3600268D368DF
:100B000043F04003D360002070470369002BE4D119
:100B1000036A1B880268C3F308035360036A023345
:100B20000362E0E710B504460268136923F44053FA
:100B3000C1680B431361836802691A4343691A430E
:100B4000C3691A430168CB6823F4164323F00C03EE
:100B50001343CB600268536923F4407381690B43EC
:100B600053610368314A934206D002F58062934292
:100B700002D000F033FC01E000F040FCE369B3F583
:100B8000004F29D00021031849411B1841F10001F1
:100B9000C90041EA5371DB00181863684FEA830209
:100BA0004FEA937341F10001FFF79AFB204AA2FB41
:100BB00000314909642303FB11031B013233A2FBFB
:100BC00003235B0903F0F00202EB011203F00F03B1
:100BD000216813448B6010BD0023021843EB03010E
:100BE000121841F10001C90041EA5271D2001018F7
:100BF00041F10001626892185B41FFF771FB0C4AFA
:100C0000A2FB00314909642303FB1103DB003233EB
:100C1000A2FB03235B095A0002F4F87202EB0112F3
:100C200003F00703216813448B60D4E700100140F0
:100C30001F85EB512DE9F04383B005460E4617465C
:100C40009946DDF828802B681C6836EA04040CBF3E
:100C500001240024BC4228D1B8F1FF3FF3D001F0B9
:100C6000AFF8A0EB0900404523D8B8F1000F22D01F
:100C70002B68DA6812F0040FE5D0802EE3D0402E06
:100C8000E1D01A6812F0080FDDD0002401941A6830
:100C900001925B680193019B2846FFF7E5FE08235C
:100CA0006B6485F84040012000E0002003B0BDE8FF
:100CB000F0830320FAE70320F8E760B310B5044699
:100CC00090F8413013B3242384F841302268D3686C
:100CD00023F40053D3602046FFF724FF22681369F2
:100CE00023F4904313612268536923F02A0353616C
:100CF0002268D36843F40053D3600020606420234B
:100D000084F8413084F84230606310BD80F8403090
:100D1000FFF76AFED7E7012070472DE9F04182B066
:100D20001E4690F84130DBB2202B56D104460D46CA
:100D30009046002955D00AB901204FE000234364B2
:100D4000212380F8413001F03BF80746A4F82480C5
:100D5000A4F82680A368B3F5805F02D04FF00008A6
:100D600014E023692BB34FF000080FE0202384F830
:100D70004130032032E038F8023B2268C3F3080315
:100D80005360E28C92B2013A92B2E284E38C9BB25D
:100D900093B100963B46002280212046FFF74AFF90
:100DA0000028E3D1002DE6D015F8012B23685A6006
:100DB000E7E7A8460025E9E700963B4600224021E8
:100DC0002046FFF737FF18B9202384F8413005E0AB
:100DD000202384F84130032000E0022002B0BDE867
:100DE000F0810120FAE72DE9F04182B01E4690F82B
:100DF0004230DBB2202B59D104460D4690460029E3
:100E000058D00AB9012052E000234364222280F81E
:100E10004220036300F0D4FF0746A4F82C80A4F816
:100E20002E80A368B3F5805F02D04FF000081CE06D
:100E3000236913B14FF0000817E0A846002514E01D
:100E4000202384F84230032031E023685B68C3F339
:100E5000080328F8023B03E023685B682B70013528
:100E6000E28D92B2013A92B2E285E38D9BB2C3B1B8
:100E700000963B46002220212046FFF7DBFE00289B
:100E8000DED1002DE1D0A368B3F5805FE4D013B9C3
:100E90002369002BE0D023685B6803F07F032B708D
:100EA000DDE7202384F84230002000E0022002B079
:100EB000BDE8F0810120FAE7704708B50168CA680B
:100EC00022F04002CA60202280F84120FFF7F4FFA0
:100ED000002008BD7047704708B5806B0023C385AC
:100EE000FFF7F9FF08BD704790F84230DBB2222BC4
:100EF00069D18368B3F5805F4FD0826AB3F5805FB4
:100F000004D0002B56D10369002B53D103685B68D2
:100F10001370836A01338362C38D9BB2013B9BB222
:100F2000C385002B51D100B583B00268D36823F08C
:100F30002003D3600268D36823F48073D36002680F
:100F4000536923F001035361202380F842300023CA
:100F50004363036B012B33D100230363026802F167
:100F60000C0353E8003F23F010030C3242E8003139
:100F70000029F3D103681A6812F0100F06D000227E
:100F800001921A6801925B680193019B818DFFF7C2
:100F9000AAFF002003B05DF804FB0269002AACD16F
:100FA000826A03685B68C3F308031380836A0233B1
:100FB0008362B1E703685B6803F07F031370A8E7FF
:100FC000FFF788FFE5E70220704700207047000028
:100FD00010B582B0044602681368D068516913F0F6
:100FE0000F0F09D113F0200F0CD010F0200F09D0F3
:100FF0002046FFF779FF16E011F0010115D110F43A
:10100000907F12D1216B012979D013F0800F03D08A
:1010100010F0800F40F0218113F0400F03D010F04A
:10102000400F40F01E8102B010BD13F0010F06D03A
:1010300010F4807F03D0626C42F00102626413F00E
:10104000040F04D019B1626C42F00202626413F022
:10105000020F04D019B1626C42F00402626413F012
:10106000080F07D010F0200F00D119B1626C42F0C8
:1010700008026264626C002AD5D013F0200F02D0FF
:1010800010F0200F29D123685B6903F04003626CE4
:1010900012F0080F00D163B32046FFF7E5FC236888
:1010A0005B6913F0400F20D0226802F1140353E86B
:1010B000003F23F04003143242E800310029F3D10D
:1010C000E36B73B1694A1A65E06B00F09DFD00287F
:1010D000A9D0E06B036D9847A5E72046FFF704FF12
:1010E000D1E72046FFF7F7FE9DE72046FFF7F3FE26
:1010F00099E72046FFF7EFFE0023636493E713F0C0
:10110000100F82D010F0100F3FF47FAF0023019337
:101110001368019353680193019B536913F0400FC7
:101120005FD0E26B13685B689BB2002B4AD0A18D45
:10113000994247D9E385D369B3F5807F37D02268D8
:1011400002F10C0353E8003F23F480730C3242E8B1
:1011500000310029F3D1226802F1140353E8003F63
:1011600023F00103143242E800310029F3D1226850
:1011700002F1140353E8003F23F04003143242E825
:1011800000310029F3D1202384F842300023236367
:10119000226802F10C0353E8003F23F010030C32E5
:1011A00042E800310029F3D1E06B00F0E3FC0223B8
:1011B0006363A18DE38D9BB2C91A89B22046FFF704
:1011C00092FE30E7A18D99427FF42DAFD369B3F53C
:1011D000807F7FF428AF022363632046FFF783FEFE
:1011E00021E7A18DE38D9BB2C91A89B2E38D9BB231
:1011F000002B3FF418AF00293FF415AF226802F12D
:101200000C0353E8003F23F490730C3242E80030A3
:101210000028F3D1226802F1140353E8003F23F0C1
:101220000103143242E800300028F3D1202384F86F
:10123000423000232363226802F10C0353E8003F8D
:1012400023F010030C3242E800300028F3D10223CF
:1012500063632046FFF747FEE5E62046FFF732FCD2
:10126000E1E62046FFF729FEDDE600BFD90E0008C3
:10127000002800F09B8070B50D4604464F4B1B685C
:1012800003F00F038B4208D2CBB24C4A13701368A1
:1012900003F00F038B4240F08B80236813F0020FA2
:1012A00017D013F0040F04D0454A936843F4E05379
:1012B0009360236813F0080F04D0414A936843F405
:1012C000604393603E4A936823F0F003A1680B43A8
:1012D0009360236813F0010F32D06368012B21D093
:1012E0009A1E012A25D9364A126812F0020F61D0DF
:1012F00033498A6822F0030213438B6000F060FDDB
:1013000006462F4B9B6803F00C036268B3EB820F19
:1013100016D000F055FD801B41F288339842F0D979
:10132000032042E0264A126812F4003FE0D1012077
:101330003BE0234A126812F0007FD9D1012034E04B
:101340001E4B1B6803F00F03AB4207D9EAB21B4BDD
:101350001A701B6803F00F03AB422DD1236813F002
:10136000040F06D0164A936823F4E053E1680B4358
:101370009360236813F0080F07D0114A936823F491
:101380006043216943EAC103936000F047F80C4BC6
:101390009B68C3F303130B4AD35CD8400A4B186015
:1013A0000A4B186800F0C0FC002070BD0120704797
:1013B0000120FAE70120F8E70120F6E7003C0240AF
:1013C00000380240B828000808000020040000206F
:1013D000014B1868704700BF0800002008B5FFF7F0
:1013E000F7FF044B9B68C3F38223034AD35CD840C6
:1013F00008BD00BF00380240B028000808B5FFF75C
:10140000E7FF044B9B68C3F34233034AD35CD840E5
:1014100008BD00BF00380240B028000808B5464BA0
:101420009B6803F00C03082B05D00C2B43D0042B36
:101430007FD1424819E0404B5A6802F03F025B6896
:1014400013F4800F12D03C4B5968C1F388113B480C
:101450000023A1FB0001FEF743FF374B5B68C3F39A
:10146000014301335B00B0FBF3F008BD324B586819
:10147000C0F388104FEA401CBCEB000C6EEB0E0E64
:101480004FEA8E1343EA9C634FEA8C11B1EB0C01D7
:1014900063EB0E03DB0043EA5173C90011EB000C50
:1014A00043F10003990200234FEA8C2041EA9C514A
:1014B000FEF716FFD1E7204B5A6802F03F025B6847
:1014C00013F4800F10D01C4B5968C1F388111B48CE
:1014D0000023A1FB0001FEF703FF174B5B68C3F37A
:1014E0000273B0FBF3F0C0E7134B5868C0F38810E9
:1014F0004FEA401CBCEB000C6EEB0E0E4FEA8E1355
:1015000043EA9C634FEA8C11B1EB0C0163EB0E03D1
:10151000DB0043EA5173C90011EB000C43F10003F7
:10152000990200234FEA8C2041EA9C51FEF7D8FE35
:10153000D3E7034899E700BF0038024040787D01B7
:101540000024F400002800F0018270B582B0044647
:10155000036813F0010F41D0994B9B6803F00C0313
:10156000042B32D0964B9B6803F00C03082B27D03A
:10157000934B9B6803F00C030C2B59D06368B3F5B5
:10158000803F5BD0B3F5A02F5ED08D4B1A6822F45C
:1015900080321A601A6822F480221A606368002B75
:1015A0005CD000F00DFC0546854B1B6813F4003F32
:1015B00014D100F005FC401B6428F5D90320CCE1D0
:1015C0007F4B5B6813F4800FD2D07D4B1B6813F404
:1015D000003F03D06368002B00F0BA81236813F04A
:1015E000020F60D0764B9B6813F00C0F4AD0744BFF
:1015F0009B6803F00C03082B3FD0714B9B6803F0F2
:101600000C030C2B69D0E368002B75D06D4B0122C5
:101610001A6000F0D5FB0546694B1B6813F0020FFA
:1016200061D100F0CDFB401B0228F5D9032094E1E5
:10163000634B5B6813F4800FA0D0C6E7604A136861
:1016400043F480331360A9E75D4B1A6842F48022AB
:101650001A601A6842F480321A609FE700F0B0FB0B
:101660000546574B1B6813F4003FB7D000F0A8FBAA
:10167000401B6428F5D903206FE1514B5B6813F4DC
:10168000800FBAD14E4B1B6813F0020F03D0E368F2
:10169000012B40F05F814A4A136823F0F803216967
:1016A00043EAC1031360236813F0080F49D063694C
:1016B000002B33D0434B0122C3F8802E00F080FB77
:1016C00005463F4B5B6F13F0020F3AD100F078FBF9
:1016D000401B0228F5D903203FE1394B5B6813F426
:1016E000800F90D1CEE7364A136823F0F8032169C2
:1016F00043EAC1031360D6E7324B00221A6000F0C0
:101700005FFB05462E4B1B6813F0020FCBD000F099
:1017100057FB401B0228F5D903201EE1294B00226C
:10172000C3F8802E00F04CFB0546254B5B6F13F091
:10173000020F06D000F044FB401B0228F5D903201D
:101740000BE1236813F0040F76D01D4B1B6C13F0D4
:10175000805F33D100230193194B1A6C42F0805201
:101760001A641B6C03F080530193019B0125164BF7
:101770001B6813F4807F29D0A368012B3AD0052B76
:101780003ED00F4B1A6F22F001021A671A6F22F037
:1017900004021A67A368002B3CD000F011FB064638
:1017A000074B1B6F13F0020F45D100F009FB801BA4
:1017B00041F288339842F3D90320CEE00025D6E7E2
:1017C0000038024000004742007000406B4A136836
:1017D00043F48073136000F0F3FA0646674B1B680E
:1017E00013F4807FC8D100F0EBFA801B0228F5D9F2
:1017F0000320B2E0624A136F43F001031367C9E7A5
:101800005F4B1A6F42F004021A671A6F42F001022E
:101810001A67BFE700F0D4FA0646594B1B6F13F066
:10182000020F08D000F0CCFA801B41F288339842B6
:10183000F3D9032091E0EDB9A369002B00F08C806F
:101840004F4A926802F00C02082A54D0022B17D09B
:101850004C4B00221A6600F0B3FA0446484B1B6852
:1018600013F0007F45D000F0ABFA001B0228F5D939
:10187000032072E0424A136C23F080531364DBE7C9
:10188000404B00221A6600F09BFA05463C4B1B6851
:1018900013F0007F06D000F093FA401B0228F5D920
:1018A00003205AE0E369226A1343626A43EA82131F
:1018B000A26A5208013A43EA0243E26A43EA026337
:1018C000226B43EA02732E4A53602E4B01221A66A2
:1018D00000F076FA04462A4B1B6813F0007F06D10D
:1018E00000F06EFA001B0228F5D9032035E0002035
:1018F00033E0002031E0012B31D0214B5B6803F451
:101900008001E26991422CD103F03F02216A8A42B0
:1019100029D1616A47F6C0721A40B2EB811F24D107
:1019200003F44031A26A5208013AB1EB024F1ED1D2
:1019300003F07062E16AB2EB016F1AD103F0E04389
:10194000226BB3EB027F16D1002006E00120704726
:10195000012002E0012000E0002002B070BD012063
:10196000FBE70120F9E70120F7E70120F5E7012077
:10197000F3E70120F1E70120EFE700BF007000402E
:10198000003802400000474200230F2B00F2E380A2
:1019900070B582B065E085684FEA430E032404FA0F
:1019A0000EF425EA0405CC6804FA0EF42C43846096
:1019B000446824EA02044A68C2F300129A402243AF
:1019C00042605CE0DC08083450F8242003F007058E
:1019D000AD004FF00F0E0EFA05FE22EA0E0E0A6958
:1019E000AA4042EA0E0240F824205CE0062200E011
:1019F000002202FA0EF22A430234574D45F8242001
:101A0000564A94686FEA0C0224EA0C054E6816F4F4
:101A1000801F01D04CEA0405504CA560E46802EA3E
:101A200004054E6816F4001F01D04CEA04054B4C27
:101A3000E560646802EA04054E6816F4003F01D0D0
:101A40004CEA0405454C6560246822404D6815F455
:101A5000803F01D04CEA0402404C226001330F2B3E
:101A600077D801229A400C6804EA020C32EA040496
:101A7000F4D14C6804F00304013C012C8BD94A6872
:101A800002F00302032A09D0C4685D000322AA40C1
:101A900024EA02048A68AA402243C2604A6802F02B
:101AA0000302022A8ED004684FEA430E032202FA90
:101AB0000EF224EA02044A6802F0030202FA0EF26D
:101AC000224302604A6812F4403FC7D000220192CC
:101AD000234A546C44F480445464526C02F48042AF
:101AE0000192019A9C08A51C1B4A52F8255003F04C
:101AF000030E4FEA8E0E0F2202FA0EF225EA0205BD
:101B0000184A90423FF474AF02F58062904216D0BA
:101B100002F58062904214D002F58062904212D0A9
:101B200002F58062904210D002F5806290420ED0A1
:101B300002F5806290423FF459AF072259E7012233
:101B400057E7022255E7032253E7042251E7052213
:101B50004FE702B070BD704700380140003C0140C3
:101B600000380240000002400AB181617047090458
:101B70008161704770B50446866D00F021F994F8D4
:101B80003530DBB2022B06D080236365002384F856
:101B90003430012070BD05462268136823F0160317
:101BA00013602268536923F080035361236CE3B10F
:101BB0002268136823F0080313602268136823F077
:101BC0000103136023681B6813F0010F11D000F0AC
:101BD000F7F8431B052BF5D920236365032084F810
:101BE0003500002384F83430D4E7A36C002BDFD118
:101BF000E3E7E26D3F239340B360012384F835307F
:101C0000002084F83400C5E790F83530DBB2022BB1
:101C100003D08023436501207047052380F83530C9
:101C20000268136823F0010313600020704700006E
:101C3000002807DB00F01F02400901239340024AFD
:101C400042F82030704700BF00E100E0002808DBC8
:101C50000901C9B200F1604000F5614080F800134D
:101C6000704700F00F000901C9B2014B19547047C9
:101C700014ED00E000B500F00700C0F1070CBCF166
:101C8000040F28BF4FF0040C031D062B0FD9C31EF1
:101C90004FF0FF3E0EFA0CF021EA000199400EFAD7
:101CA00003FE22EA0E0241EA02005DF804FB002373
:101CB000EEE70000074AD36823F4E0631B041B0C23
:101CC000000200F4E060034343F0BF6343F40033D9
:101CD000D360704700ED00E010B50446054BD868AE
:101CE000C0F30220FFF7C6FF01462046FFF7AEFF14
:101CF00010BD00BF00ED00E008B5FFF799FF08BD7B
:101D00000138B0F1807F0BD24FF0E0235861054AD3
:101D1000F02182F823100020986107221A61704791
:101D20000120704700ED00E010B504460E4B1A7814
:101D30004FF47A73B3FBF2F30C4A1068B0FBF3F084
:101D4000FFF7DEFF68B90F2C01D901200AE000225D
:101D500021464FF0FF30FFF7BFFF054B1C6000200E
:101D600000E0012010BD00BF00000020080000209E
:101D70000400002008B50B4B1A6842F400721A6088
:101D80001A6842F480621A601A6842F480721A601B
:101D90000320FFF78FFF0F20FFF7C6FFFEF708FEB7
:101DA000002008BD003C0240034A1168034B1B7829
:101DB0000B441360704700BFC000002000000020EB
:101DC000014B1868704700BFC0000020034AD2F8DA
:101DD000883043F47003C2F88830704700ED00E0AB
:101DE00010B503460C4A0D490D48006840B10C4837
:101DF00000680344521A934206D8094A136010BD82
:101E00000748084C0460F2E700F09CF80C230360DC
:101E10004FF0FF30F3E700BF000002200004000095
:101E2000C400002010020020DFF834D0FFF7CEFFFE
:101E30000C480D490D4A002302E0D458C450043325
:101E4000C4188C42F9D30A4A0A4C002301E01360FB
:101E50000432A242FBD300F07BF8FEF7A5FC7047EA
:101E600000000220000000205C0000200C29000877
:101E70005C00002010020020FEE700000CB430B52A
:101E8000184B0C1E1D689DB008DA8B232B604FF099
:101E9000FF301DB0BDE8304002B070474FF4027310
:101EA000ADF814304FF000031B9314BF04F1FF335F
:101EB0002346049307934FF6FF7302900690ADF804
:101EC0001630209A21AB02A92846019300F0C2F9EE
:101ED000431CBCBF8B232B60002CDAD0029B00225A
:101EE0001A70D6E70C00002002440346934200D14A
:101EF000704703F8011BF9E710B56AB1013984187E
:101F000010F8012B11F8013F9A4203D1A04201D0F1
:101F1000002AF5D1D01A10BD1046FCE710B50139E2
:101F2000034632B111F8014F03F8014B013A002C7E
:101F3000F7D11A440021934200D110BD03F8011BD0
:101F4000F9E70000014B1868704700BF0C00002043
:101F500070B50D4D0D4C641BA4100026A64209D18E
:101F60000B4D0C4C00F06CFC641BA4100026A64228
:101F700005D170BD55F8043B98470136EEE755F89A
:101F8000043B98470136F2E70429000804290008B9
:101F9000042900080829000870477047034611F813
:101FA000012B03F8012B002AF9D1704738B50546FB
:101FB000002941D051F8043C0C1F002BB8BFE41895
:101FC00000F0E0F81D4A136833B9636014602846D6
:101FD000BDE8384000F0DCB8A34208D920682118D9
:101FE0008B4201BF19685B6809182160EDE71A464A
:101FF0005B680BB1A342FAD911685018A0420BD10B
:1020000020680144501883421160E0D118685B6871
:10201000536008441060DAE702D90C232B60D6E73E
:10202000206821188B4204BF19685B68636004BF95
:10203000091821605460CAE738BD00BF0C020020B7
:1020400070B50F4E0C463168054611B900F0A4FB7F
:1020500030602146284600F09FFB431C03D14FF01F
:10206000FF34204670BDC41C24F00304A042F8D005
:10207000211A284600F090FB0130F2D1EFE700BFB3
:10208000080200202DE9F843CD1C25F00305083592
:102090000C2D38BF0C25002D064601DBA94204D9C2
:1020A0000C2333600020BDE8F883DFF8D48000F013
:1020B00069F8D8F800301C4644BB29463046FFF783
:1020C000BFFF431C044658D1D8F800402746002FD4
:1020D00043D1002C4BD023683946304604EB03092A
:1020E00000F05AFB814542D121686D1A29463046DD
:1020F000FFF7A6FF01303AD023682B442360D8F8BD
:1021000000305A6862BBC8F800700FE02268521BAA
:1021100020D40B2A17D96119A342256018BF596032
:10212000636808BFC8F8001062514B60304600F089
:102130002FF804F10B00231D20F00700C21A1CBF6A
:102140001B1AA350AFE76268A3420CBFC8F8002077
:102150005A60EBE723466468AEE73C467F68B6E723
:102160001A465B68A342FBD100235360DEE70C23D1
:102170003360304600F00CF894E70560D6E700BF06
:102180000C0200200148FFF707BF00BF0402002037
:102190000148FFF702BF00BF040200202DE9F0470D
:1021A0008E681F46BE420B6882460C4690462DD86C
:1021B000B1F90C2012F4906F26D06569096905EB1E
:1021C0004505A3EB010905EBD5757B1C4B446D1050
:1021D0009D4238BF1D46530527D52946FFF752FFBC
:1021E000064660B321694A4600F0E6FAA38923F463
:1021F000906343F08003A381266165614E44A5EBA3
:1022000009052660A5603E46BE4200D93E462068CC
:102210003246414600F0A6FAA3689B1BA3602368E0
:10222000334423600020BDE8F0872A4600F0D2FA4C
:1022300006460028E0D121695046FFF7B7FE0C237F
:10224000CAF80030A38943F04003A3814FF0FF3068
:10225000E9E700002DE9F04F98468B891B069DB0F9
:1022600007460D46144610D50B6973B94021FFF798
:1022700009FF2860286130B90C233B604FF0FF3024
:102280001DB0BDE8F08F40236B610023099320232C
:102290008DF82930CDF80C803023DFF89C818DF843
:1022A0002A304FF0010923469A4613F8012B0AB150
:1022B000252AF9D1BAEB040B0BD05B4622462946FE
:1022C0003846FFF76BFF013000F0A780099A5A44A7
:1022D00009929AF80030002B00F09F8000234FF005
:1022E000FF32CDE905230AF1010A049307938DF823
:1022F00053301A935446052214F8011B4E48FDF73B
:102300009FFF049AD8B9D00644BF20238DF85330DC
:10231000110744BF2B238DF853309AF800302A2B35
:1023200015D0079A544600204FF00A0C214611F8A8
:10233000013B303B092B4BD9B0B1079214E0A0EB25
:10234000080309FA03F313430493A246D2E7039B5D
:10235000191D1B680391002BBBBF5B4242F00202B8
:1023600007930793B8BF049223782E2B0AD1637882
:102370002A2B32D1039B1A1D1B68039243EAE37395
:1023800002340593DFF8C0A0217803225046FDF700
:1023900057FF38B1049BA0EB0A0040228240134350
:1023A0000134049314F8011B24488DF828100622E8
:1023B000FDF746FF002836D0214B1BBB039B07339C
:1023C00023F0070308330393099B334409936AE717
:1023D0000CFB02320C460120A8E7002301340593D0
:1023E00019464FF00A0C204610F8012B303A092A02
:1023F00003D9002BC6D00591C4E70CFB012104468C
:102400000123F0E703AB00932A460E4B04A938469C
:10241000AFF30080421C0646D6D1AB895B063FF580
:102420002DAF09982CE703AB00932A46054B04A96E
:10243000384600F079F8EDE7C8280008D2280008EF
:10244000000000009D210008CE2800082DE9F0477B
:10245000164698468A680B69DDF820909342B8BF0B
:102460001346336091F8432007460C460AB1013306
:1024700033602368990642BF3368023333602568AE
:1024800015F0060506D104F1190AE36832689B1AB3
:10249000AB4226DC94F843302268003B18BF01238E
:1024A00092062BD404F1430241463846C847013016
:1024B0001ED02368226903F00603042B02BFE568DF
:1024C0003368ED1AA3680CBF25EAE5750025934231
:1024D000C4BF9B1AED1800261A34B5421AD1002049
:1024E00008E00123524641463846C847013003D12F
:1024F0004FF0FF30BDE8F0870135C6E7E1185A1C00
:10250000302081F84300224494F8451082F84310AB
:102510000233C7E70123224641463846C847013007
:10252000E6D00136D9E700002DE9FF470F7E0C9E6B
:10253000782F914680460C469A4601F1430207D80F
:10254000622F0AD8002F00F0D180582F00F0B880F9
:1025500004F1420684F842703AE0A7F16303152BB8
:10256000F6D801A151F823F0C1250008D5250008AF
:102570005125000851250008512500085125000863
:10258000D5250008512500085125000851250008CF
:1025900051250008D3260008FF2500088D260008D5
:1025A0005125000851250008F5260008512500088E
:1025B000FF25000851250008512500089526000830
:1025C00033681A1D1B68326004F1420684F84230F9
:1025D00001239CE033682068191D3160060601D58F
:1025E0001D6803E04506FBD5B3F90050002D03DA62
:1025F0002D236D4284F8433058480A2311E02168A6
:102600003368080653F8045B02D4490648BFADB2EC
:102610006F2F5248336014BF0A230823002184F827
:1026200043106668A660002E05DB21682E4321F06A
:10263000040121604BD01646B5FBF3F103FB1157A3
:10264000C75D06F8017D2F46BB420D46F4D9082B25
:102650000BD12368DF0708D5236961689942DEBF83
:10266000302306F8013C06F1FF36921B2261CDF8BB
:1026700000A04B4603AA21464046FFF7E7FE013083
:102680004AD14FF0FF3004B0BDE8F087236843F033
:10269000200323603248782784F845702368316826
:1026A0001F0651F8045B02D45F0648BFADB231602B
:1026B000D90744BF43F0200323601DB11023ADE7C9
:1026C0002648E9E7236823F020032360F6E716464F
:1026D000BDE7336825686169181D30602E061B68E8
:1026E00001D5196002E06806FBD51980002323613B
:1026F0001646BCE733681A1D32601E686268002106
:102700003046FDF79DFD08B1801B60606368236162
:10271000002384F84330AAE72369324649464046FD
:10272000D0470130ADD023689B0713D4E068039BEA
:102730009842B8BF1846A6E70123324649464046AC
:10274000D04701309DD00135E36803995B1AAB4255
:10275000F2DCEBE7002504F11906F5E7D9280008BB
:10276000EA280008884210B501EB020402D984422D
:10277000234607D8431EA14208D011F8012B03F8C5
:10278000012FF8E7024401468A4200D110BD13F838
:10279000014D02F8014DF7E738B5064D0023044618
:1027A00008462B60FFF71CFB431C02D12B6803B1CA
:1027B000236038BD000200200A44914200F1FF333B
:1027C00000D1704710B511F8014B03F8014F914249
:1027D000F9D110BD2DE9F041074614460D4621B947
:1027E000BDE8F0411146FFF74DBC2AB9FFF7DEFB0B
:1027F00025462846BDE8F08100F01AF884420646D6
:1028000002D8B4EB500FF4D821463846FFF73AFC13
:10281000804608B94546ECE7B4422246294628BF1F
:102820003246FFF7C9FF29463846FFF7BFFBF1E7FD
:1028300051F8043C181F002BBCBF0B58C018704740
:10284000F8B500BFF8BC08BC9E467047F8B500BF9D
:08285000F8BC08BC9E4670476D
:10285800434F4E4E454354004F4B0A004552524F8A
:10286800520A0000444953434F4E4E45435400001A
:102878004745545F434F44455F000000434F44457C
:102888003A25730A000000004E4F545F464F554EDC
:10289800440A00005345545F434F44455F0000001D
:1028A80053415645440A0000000000000102030499
:1028B80000000000000000000102030406070809E8
:1028C800232D302B2000686C4C0065666745464711
:1028D8000030313233343536373839414243444594
:1028E8004600303132333435363738396162636403
:0428F8006566000011
:0828FC0014D9FF7F0100000068
:04290400F5010008D1
:04290800D1010008F1
:10290C0001000000100000000024F4001000002062
:10291C0000000000C80000203001002098010020B9
:10292C00000000000000000000000000000000009B
:10293C00000000000000000000000000000000008B
:10294C00000000000000000000000000000000007B
:0C295C000000000000000000000000006F
:0400000508001E29A8
:00000001FF
